S0100000414443636F6C6F722E737265632D
S11300000C942A000C943F000C943F000C943F0085
S11300100C943F000C943F000C943F000C943F0060
S11300200C943F000C943F000C943F000C943F0050
S11300300C943F000C943F000C943F000C943F0040
S11300400C943F000C943F000C943F000C943F0030
S11300500C943F0011241FBECFE5D4E0DEBFCDBF1A
S113006010E0A0E6B0E0E0E3F3E002C005900D92FA
S1130070A23AB107D9F70E9433010C9496010C946B
S11300800000805C87B987ED86B9349BFECF24B12C
S113009035B1822F932F08959C01207F33272C5F45
S11300A028BBE9EFF0E03197F1F700C0000098B306
S11300B0945098BB8295807F8C5F88BB89EF90E0D9
S11300C00197F1F700C0000088B3845088BB0895FD
S11300D09C01207F33272B5F28BBE9EFF0E03197A9
S11300E0F1F700C0000028B3245028BB82959295F4
S11300F0907F9827807F98278B5F88BB89EF90E05B
S11301000197F1F700C0000088B3845088BB0895BC
S1130110CF93DF93EC018881882339F0219690E016
S11301200E94680089918111FACFDF91CF910895DF
S11301300F931F93CF93DF93EC01009781F580E336
S113014090E00E94680084E090E00E944C0022C08D
S11301509E01ADECBCEC0E948A018C0116950795BA
S113016016950795169507959801220F331FC80118
S1130170880F991F880F991F880F991F820F931F4B
S11301809E01281B390BC901C0960E946800E80132
S11301902097F1F686E090E00E944C0005C084E0D0
S11301A090E00E944C00D4CFDF91CF911F910F912A
S11301B0089582E090E00E944C0088E290E00E9462
S11301C04C008CE090E00E944C0086E090E00E949D
S11301D04C000895CF93DF93C82FD92FCE018556B5
S11301E091098539910520F480E690E00E94880009
S11301F0CE018B5F9109873C910520F486E690E05F
S11302000E948800CE01835C9140C19720F48DE662
S113021090E00E948800CE01855F9140833691056D
S113022020F481E790E00E948800CE018955924035
S11302308336910520F486E790E00E948800CE0181
S11302408D5B9240C19720F48CE790E00E94880077
S1130250CF5ED240E19720F482E890E00E948800CB
S1130260DF91CF9108958FEF87BB0E94D90080E87A
S113027090E00E944C0089E890E00E9488002FE3FF
S11302808DE093E0215080409040E1F700C00000F1
S113029081E090E00E944C0083EF91E00197F1F738
S11302A000C0000080E890E00E944C0081E990E0EA
S11302B00E94880080E090E00E944100EC019FE3EE
S11302C02DE083E0915020408040E1F700C0000021
S11302D081E090E00E944C0083EF91E00197F1F7F8
S11302E000C0000085EC90E00E944C00CE010E940A
S11302F0980086E890E00E944C00CE010E94EA003B
S11303009FE32DE083E0915020408040E1F700C05E
S11303100000D0CFA29FB001B39FC001A39F01D022
S1130320B29F700D811D1124911D0895F894FFCF83
S1130330424C41434B0056494F4C455400524544AE
S113034000424C554500475245454E0057484954D4
S1130350450059454C4C4F570057454C434F4D456C
S113036000456E746572207468652076616C7565ED
S1050370000087
S9030000FC
