S00F000041444374656D702E7372656397
S11300000C942A000C943F000C943F000C943F0085
S11300100C943F000C943F000C943F000C943F0060
S11300200C943F000C943F000C943F000C943F0050
S11300300C943F000C943F000C943F000C943F0040
S11300400C943F000C943F000C943F000C943F0030
S11300500C943F0011241FBECFE5D4E0DEBFCDBF1A
S113006010E0A0E6B0E0E0E8F2E002C005900D92F6
S1130070A239B107D9F70E94EA000C943E010C940E
S11300800000805C87B987ED86B9349BFECF24B12C
S113009035B1822F932F08959C01207F33272C5F45
S11300A028BBEFECF7E03197F1F700C0000098B3FC
S11300B0945098BB8295807F8C5F88BB8FEC97E0CF
S11300C00197F1F700C0000088B3845088BB0895FD
S11300D09C01207F33272B5F28BBEFECF7E031979F
S11300E0F1F700C0000028B3245028BB82959295F4
S11300F0907F9827807F98278B5F88BB8FEC97E051
S11301000197F1F700C0000088B3845088BB0895BC
S1130110CF93DF93EC018881882339F0219690E016
S11301200E94680089918111FACFDF91CF910895DF
S11301300F931F93CF93DF93EC01009781F580E336
S113014090E00E94680084E090E00E944C0022C08D
S11301509E01ADECBCEC0E9432018C011695079512
S113016016950795169507959801220F331FC80118
S1130170880F991F880F991F880F991F820F931F4B
S11301809E01281B390BC901C0960E946800E80132
S11301902097F1F686E090E00E944C0005C084E0D0
S11301A090E00E944C00D4CFDF91CF911F910F912A
S11301B0089582E090E00E944C0088E290E00E9462
S11301C04C008CE090E00E944C0086E090E00E949D
S11301D04C0008958FEF87BB0E94D90080E890E01F
S11301E00E944C0080E690E00E9488002FEF89E690
S11301F098E1215080409040E1F700C0000081E088
S113020090E00E944C008FE99FE00197F1F700C055
S1130210000080E090E00E944100EC019FEF29E69D
S113022088E1915020408040E1F700C0000081E067
S113023090E00E944C008FE99FE00197F1F700C025
S1130240000085EC90E00E944C00CE010E949800D2
S11302509FEF29E688E1915020408040E1F700C0FB
S11302600000D7CFA29FB001B39FC001A39F01D0CC
S1130270B29F700D811D1124911D0895F894FFCF34
S113028057454C434F4D4500424C41434B00564962
S11302904F4C45540052454400424C55450047528A
S11302A045454E0057484954450059454C4C4F5715
S10502B0000048
S9030000FC
